:020000040800F2
:10000000C007002029020008B1230008A923000826
:10001000AD230008D5030008E12700080000000018
:10002000000000000000000000000000B9230008EC
:10003000D903000800000000B5230008BD23000814
:10004000430200084302000843020008430200087C
:10005000430200084302000843020008430200086C
:10006000430200084302000843020008430200085C
:10007000430200084302000843020008430200084C
:10008000430200084302000843020008430200083C
:10009000430200084302000843020008430200082C
:1000A000430200084302000843020008430200081C
:1000B0008524000843020008912400084302000838
:1000C00043020008430200084302000843020008FC
:1000D00043020008D5270008430200084302000835
:1000E00043020008430200084302000843020008DC
:1000F00043020008430200084302000843020008CC
:1001000043020008430200084302000843020008BB
:1001100043020008430200084302000843020008AB
:10012000430200084302000843020008430200089B
:10013000430200084302000843020008430200088B
:10014000430200084302000843020008430200087B
:10015000430200084302000843020008430200086B
:10016000430200084302000843020008430200085B
:100170004302000843020008430200080000000098
:10018000430200084302000800F002F800F03CF8C7
:100190000AA090E8000C82448344AAF10107DA45E2
:1001A00001D100F031F8AFF2090EBAE80F0013F0F8
:1001B000010F18BFFB1A43F001031847403000003D
:1001C00060300000103A24BF78C878C1FAD85207CE
:1001D00024BF30C830C144BF04680C6070470000C1
:1001E0000023002400250026103A28BF78C1FBD840
:1001F000520728BF30C148BF0B6070471FB502F0DF
:10020000DEFF1FBD10B510BD00F0A9F81146FFF7C5
:10021000F5FF02F0E7FA00F0C7F803B4FFF7F2FFCA
:1002200003BC00F0CFF800000948804709480047A8
:10023000FEE7FEE7FEE7FEE7FEE7FEE7FEE7FEE796
:10024000FEE7FEE704480549054A064B70470000F3
:100250007124000889010008C0010020C0070020A7
:10026000C0030020C003002053EA020C00F06980A4
:100270002DE9F04B4FF00006002B1FBFB3FA83F5BA
:1002800003FA05F424FA05F65E4012BF1643B2FAEB
:1002900082F502FA05F4C5F120051EBF22FA05FC1D
:1002A00044EA0C04203556EA044C4FEA144418BFC3
:1002B000641C4FF000084FF00009904271EB030CF2
:1002C00039D3002919BFB1FA81F701FA07F6B0FA5C
:1002D00080F700FA07F6C7F120071EBF20FA07FCD7
:1002E00046EA0C062037B6FBF4FCA7EB0507103FE7
:1002F00007F01F0BCBF120062CFA06F60CFA0BFBCD
:1003000044BFB3460026202FA4BF5E464FF0000B2B
:100310005BEA060C08BF4FF0010B19EB0B0948EB29
:100320000608ABFB027C06FB02CC0BFB03CCC01B1C
:1003300071EB0C01C1E70B46024641464846BDE859
:10034000F08B13B5084318BF4FF0FF300146AFF3F1
:100350000080BDE81C407047704770477047754685
:1003600000F02CF8AE4605006946534620F0070021
:10037000854618B020B5FFF765FFBDE820404FF077
:1003800000064FF000074FF000084FF0000BAC469E
:10039000ACE8C009ACE8C009ACE8C009ACE8C009E9
:1003A00021F007018D46704710B50446AFF3008079
:1003B0002046BDE81040FFF730BF000000487047FE
:1003C0001800002001491820ABBEFEE726000200FD
:1003D00070470000FEE700007047000070B5866DB2
:1003E000044600F043F994F83510022928D1054657
:1003F0002068216C026822F016020260426922F035
:100400008002426109B9A16C19B1016821F00801AB
:100410000160016821F00101016000BF20680068EF
:10042000C00715D000F022F9401B0628F6D3202083
:100430006065032084F83500002184F8341070BD15
:10044000802060650120002184F8341070BD00BF59
:10045000E06D3F2101FA00F0B060012084F8350022
:100460000020002184F8341070BD000090F8351091
:10047000022909D1052180F835100068016821F0B2
:100480000101016000207047802141650120704713
:10049000B0B5044600F0EAF8054640F20000C2F2AA
:1004A00000000078611C18BF044400BF00F0DEF8B3
:1004B000401BA042FAD3B0BD2DE9F04F82B000F14D
:1004C0003E4241F6004502F1FF77C4F202050822E0
:1004D00043F6004E4FEAB726A84208BF0722C4F2EF
:1004E000010E072E38BF4FEAB7220125002600274C
:1004F0004FF00008009208E008F101080437B8F155
:10050000100F06F1020600F0A7800C6805FA08F942
:1005100014EA090FF0D0D1F804B003220BF0030C59
:10052000ACF10104B240012C6FEA020A10D88268D3
:10053000CC6802EA0A02B440224382604268CBF3EC
:10054000001422EA090204FA08F42243426005E09A
:10055000BCF1030F02D14FF0030C20E0C2688C689D
:1005600002EA0A02B4402243BCF1020FC26016D173
:100570006FF0030202EA58020244D2F820C007F0EA
:100580001C050F230C69AB402CEA030304FA05F5A4
:100590002B431362D1F804B001250BF0030C026861
:1005A0000CFA06F302EA0A021A431BF4403F026007
:1005B000A2D0002243F644030192C4F202031A6857
:1005C0004FF6084C42F480421A601A68CFF6FF7C5E
:1005D00002F480420192019A28F00302724452F818
:1005E0000C3007F00C050F24AC40A343009C04FA28
:1005F00005F52B4342F80C30DEF808204B6842EA40
:10060000090543F60C4CDC0258BF22EA0905CEF876
:100610000850C4F2010CDCF800209C0242EA0905F3
:1006200058BF22EA0905CCF80050DEF804209C03EC
:1006300042EA090558BF22EA0905CEF80450DEF85F
:100640000020DB0342EA090558BF22EA0905CEF87B
:100650000050012550E700BF02B0BDE8F08F000058
:10066000002A08BF090481617047000040F2B810F9
:10067000C2F200000068704740F2000040F2B8117A
:10068000C2F20000C2F2000100780A68104408605B
:100690007047000080B543F60040C4F202000168D4
:1006A00041F400710160016841F4806101600168FA
:1006B00041F480710160032000F088F80F2000F001
:1006C00005F800F027F8002080BD000070B540F26A
:1006D0000006C2F2000640F208013278C2F20001C0
:1006E0004FF47A730968B3FBF2F20446B1FBF2F1FE
:1006F000084600F043FB0F2C4FF0010508D838B92D
:100700004FF0FF3021460022002500F033F87460DE
:10071000284670BD82B0002043F640010190C4F22B
:1007200002014A6842F480424A604A6802F4804208
:100730000192019A0090086840F0805008600868B3
:1007400000F080500090009802B07047002848BF29
:100750007047C1B200F01F00012202FA00F04EF211
:100760000012CEF2000242EAD10121F0030108603A
:100770007047000010B54EF60C5CCEF2000CDCF8B1
:100780000030C3F3022E8EF00704042C28BF04248B
:10079000BEF103034FF0FF3E0EFA04F438BF00230E
:1007A000A14399400EFA03F39A43114300F00F025C
:1007B00000F160430901043A03F5644362440028F0
:1007C00048BF02F10C03197010BD00004EF60C5129
:1007D000CEF200010A684FF6FF031A4060F30A22C6
:1007E00042F0806040F0FD70086070472DE9F041F4
:1007F000002800F08B8043F60808C4F20208044683
:10080000D8F8F8030D4600F00700884207D288F8B0
:10081000F853D8F8F80300F00700A84276D1206812
:10082000810717D5410705D5D8F8001041F4E051EC
:10083000C8F80010010705D5D8F8001041F4604150
:10084000C8F80010D8F80010A26821F0F001114398
:10085000C8F80010C0073FD1D8F8F80300F007002F
:10086000A84207D988F8F853D8F8F80300F0070031
:10087000A8424BD12068410707D5D8F80010E2689C
:1008800021F4E0511143C8F80010000708D5D8F84A
:100890000000216920F4604040EAC100C8F800006F
:1008A00000F07CF8D8F8001043F2E212C1F3031113
:1008B000C0F60002515C40F2080220FA01F140F259
:1008C0000400C2F200000068C2F200021160FFF7EB
:1008D000FDFE0020BDE8F0816068811E022907D27C
:1008E00058F8081C89015CBF0120BDE8F08111E0C7
:1008F000012807D158F8081C89035CBF0120BDE816
:10090000F08107E058F8081C890703D40120BDE8EE
:10091000F08100BFD8F8001021F003010843C8F8A7
:100920000000FFF7A3FE064641F28837D8F8000022
:10093000616800F00C00B0EB810F8DD0FFF796FEE0
:10094000801BB842F2D90320BDE8F08140F20800D4
:1009500043F60801C2F20000C4F20201006809680F
:1009600043F2F212C1F38221C0F60002515CC8408A
:100970007047000040F2080043F60801C2F2000090
:10098000C4F202010068096843F2F212C1F3423175
:10099000C0F60002515CC8407047000010B543F635
:1009A0000404C4F20204606800F00C0008280BD0B4
:1009B000042819BF42F20040C0F2F40047F640009C
:1009C000C0F27D1010BD00BF206821682368490275
:1009D00047F64001C0F27D1100F03F02C3F38810DA
:1009E0005CBF42F20041C0F2F401A1FB0001002310
:1009F000FFF73AFC21680222C1F3014102EB4101F9
:100A0000B0FBF1F010BD00002DE9F04182B00028EC
:100A100068D00446007843F60006C007C4F2020618
:100A20000BD0B06800F00C00042840F09F803068C4
:100A3000800302D56068002854D0207880071AD53A
:100A4000B06810F00C0F09D0B06800F00C00082856
:100A500040F0A6807068400200F1A28030688007F4
:100A600002D5E06801283DD13068216920F0F80006
:100A700040EAC10030602078000737D42078400772
:100A80004CD4A56955B3B06800F00C00082840F0BC
:100A9000BB80012D26D07068E16900F480028A4293
:100AA00020D1216A00F03F028A421BD147F6C07173
:100AB000626A0140B1EB821F14D1A16A4FF6FF7345
:100AC000C903994300F44032A1F580318A4209D12B
:100AD000E16A00F07060B0EB016F03D1002002B05A
:100AE000BDE8F081012002B0BDE8F0816069002816
:100AF00040F20000C4F2472076D00121C0F8801EE9
:100B0000FFF7B4FD054600BF706F8007B6D4FFF74E
:100B1000ADFD401B0228F7D9DDE000BF306C10F0BE
:100B200080580AD100200190306C40F08050306431
:100B3000306C00F080500190019847F20007C4F239
:100B400000073868C00541D4386840F480703860C8
:100B5000FFF78CFD054600BF3868C00536D4FFF7A7
:100B600085FD401B0228F7D9B5E000BFB06800F052
:100B70000C00082803D1706840023FF558AF606848
:100B8000B0F5803F07D0B0F5A02F40F08D803068E1
:100B900040F480203060306840F4803030608DE078
:100BA000E068002852D00020C4F2472001210160F3
:100BB000FFF75CFD054600BF306880073FF554AF86
:100BC000FFF754FD401B0228F6D984E0A0680128F5
:100BD00005D005284ED1306F40F004003067306FEB
:100BE00040F0010030674FE00021C0F8801EFFF7A1
:100BF0003DFD0546706F80077FF540AFFFF736FD7E
:100C0000401B0228F6D966E00027C4F247270020DF
:100C10003866FFF72BFD022D05460BD130688001A9
:100C20005ED5FFF723FD401B02284FF00300F5D9E6
:100C300055E700BF306880017FF550AFFFF716FD24
:100C4000401B02284FF00300F4D948E70020C4F20B
:100C5000472000210160FFF709FD05463068800745
:100C60007FF509AFFFF702FD401B02284FF003009C
:100C7000F4D934E7316F002821F001013167316F79
:100C800021F0040131674DD0FFF7F0FC054641F239
:100C9000883700BF306F800756D4FFF7E7FC401B52
:100CA000B842F7D917E000BF3168002821F480313D
:100CB0003160316821F4802131604FD0FFF7D6FCDC
:100CC000054600BF306880033FF5B7AEFFF7CEFCA6
:100CD000401B6428F6D9032002B0BDE8F08100BFB4
:100CE00004F11C052FCD084340EA8210D9034FF6CA
:100CF000FF729143A1F5803140EA056008437060BE
:100D000001203866FFF7B2FC044600BF306880015E
:100D10003FF5E4AEFFF7AAFC001B02284FF00300EA
:100D2000F4D9DCE6FFF7A2FC054641F2883700BFA4
:100D3000306F800708D5FFF799FC401BB8424FF091
:100D40000300F5D9CBE600BFB8F1000F7FF499AEF0
:100D5000306C20F08050306493E600BFFFF786FCD3
:100D6000054600BF306880037FF567AEFFF77EFC65
:100D7000401B64284FF00300F4D9B0E6411E002068
:100D8000B0EB116F1CBF012070474EF21002CEF283
:100D9000000251604EF62351CEF20001F0230B7099
:100DA0000721906011607047704700007047000095
:100DB00010B590F83C20012A4FF0020251D080F883
:100DC0003D200268D2F804E0D2F808C00C682EF08A
:100DD0007003234341F2FF74C4F20004A242536043
:100DE0000EDC40F2FF73C4F200039A4216DCB2F14B
:100DF000804F2BD040F20043C4F2000324E000BF38
:100E000040F2FF33C4F201039A4213DC41F60003BF
:100E1000C4F200039A4219D0002313E040F6000305
:100E2000C4F200039A4211D040F60043C4F200031A
:100E30000AE000BF44F20003C4F201039A4205D065
:100E400040F20043C4F201039A4204D149682CF0F5
:100E50008003194391600121002280F83D1080F841
:100E60003C20104610BD0000002804BF0120704740
:100E700010B5044690F83D0028B9002084F83C00E5
:100E8000204600F01FF8022084F83D002068211D54
:100E900001F004FB012084F8460084F83E0084F849
:100EA0003F0084F8400084F8410084F8420084F850
:100EB000430084F8440084F8450084F83D00002095
:100EC00010BD000080B582B00068B0F1804F1CBF3B
:100ED00002B080BD0020019043F64000C4F2020041
:100EE0000168002241F0010101600068002100F06A
:100EF0000100019001981C20FFF73CFC1C2002B06F
:100F0000BDE88040FFF722BC90F83D1001291CBFCE
:100F100001207047022180F83D10006841F2FF7205
:100F2000C168C4F20002904241F00101C1600DDCD1
:100F300040F2FF71C4F20001884215DCB0F1804F2D
:100F40002AD040F20041C4F2000123E040F2FF3118
:100F5000C4F20101884213DC41F60001C4F2000131
:100F6000884219D0002113E040F60001C4F20001CC
:100F7000884211D040F60041C4F200010AE000BFEF
:100F800044F20001C4F20101884205D040F2004160
:100F9000C4F20101884206D1816801F007010629E7
:100FA00004BF00207047016841F00101016000208A
:100FB0007047000080B590F83C20012A4FF00202F3
:100FC00000F0C28080F83D20D0F800C04FF6777264
:100FD000DCF8083023EA0202CCF808200B684F2B1B
:100FE00028DC1F2B44DD202B45D0302B43D0402B59
:100FF00040F0AC80D1F804E0C968DCF82030DCF8BF
:10100000202022F00102CCF82020DCF8182022F069
:10101000F00242EA011123F00A0242EA0E02CCF881
:101020001810CCF82020DCF8081041F0470121F01E
:10103000300180E06F2B27DDB3F5005F48D0B3F5BA
:10104000805F7AD0702B40F08180D1E901E3C968DC
:10105000DCF8082043EA0E0322F47F4243EA012130
:101060001143CCF80810DCF8081041F0770162E079
:101070000BB1102B6AD1DCF8081021F07001194374
:1010800041F0070157E000BF502B35D0602B5DD1F8
:10109000D1F804E0C968DCF8203023F01003CCF864
:1010A0002030DCF81830DCF8202023F4704322F0E4
:1010B000A00243EA013142EA0E12CCF81810CCF833
:1010C0002020DCF8081041F0670121F0100132E027
:1010D000D1E901E3C968DCF8082043EA0E0322F4F1
:1010E0007F4243EA01211143CCF80810DCF80810D4
:1010F00041F480411FE000BFD1F804E0C968DCF88A
:101100002030DCF8202022F00102CCF82020DCF88E
:10111000182022F0F00242EA011123F00A0242EA0A
:101120000E02CCF81810CCF82020DCF8081041F0A2
:10113000570121F02001CCF808100022012180F88D
:101140003D10002180F83C10104680BD0122F5E7DB
:10115000002804BF012070472DE9F047044690F8AD
:101160003D000D4628B9002084F83C00204600F0E0
:1011700049F8022084F83D00206844F207028168A3
:1011800091438160211D01F089F920684FF6FF78B5
:1011900081688269D0F820C0D5E9003ED5E9026AAD
:1011A00043EA0109AB6922EA080246EA03234FF643
:1011B000FC46B343D5E9076742EA0A0229691A43A4
:1011C00042EA062242EA01112CF0AA026B6942EAC5
:1011D0000E0241EA073142EA0312C0F80890816129
:1011E0000262012084F8460084F83E0084F83F0043
:1011F00084F8420084F8430084F83D000020BDE8F4
:10120000F087000080B586B0016840F60000C4F2A7
:101210000000814202D006B080BD00BF002143F62D
:1012200030020191C4F20202136900F5013043F06B
:1012300004031361136903F004030193019B0191FB
:10124000136843F008031360126802F00802019269
:10125000019A4FF4405201920222CDE9022103216A
:10126000CDE9041201A9FFF727F91E200021002271
:10127000FFF780FA1E20FFF769FA06B080BD000074
:1012800080B590F83E2090F83F3090F842E090F81A
:1012900043C004290AD0B9B9012A4FF0010208BF9E
:1012A000BEF1010F34D0104680BD00BF012B4FF0BE
:1012B000010208BFBCF1010FF5D1022180F83F10F7
:1012C00080F8431000681EE0012A4FF0010208BFB9
:1012D000012BE8D1BEF1010FE5D1BCF1010FE2D144
:1012E000022280F83E2080F83F2080F8422080F8DB
:1012F000432091B10068016A21F001010162016A95
:1013000041F00101016210216FF0100209E000BFFD
:10131000022180F83E1080F84210006801216FF031
:101320000102036A1A400262026A11430162016803
:10133000002241F001010160104680BD70470000AD
:1013400010B5016804460869800744BFC8685FEAB1
:10135000807039D40869400744BFC8685FEA4070AC
:101360003ED40869000744BFC8685FEA007045D4EE
:101370000869C00644BFC8685FEAC0604AD408690B
:10138000C0071CBFC8685FEAC07051D10869000679
:1013900044BFC8685FEA006052D40869400644BF91
:1013A000C8685FEA406053D40869800646BFC868D1
:1013B0005FEA806010BD6FF0200220460A61BDE840
:1013C0001040FFF7F3BC00BF6FF00200086101207E
:1013D00020778869800743D02046FFF7AFFF45E0BC
:1013E0006FF00400086102202077886910F4407FC4
:1013F00040D02046FFF7A2FF42E000BF6FF0080098
:10140000086104202077C86980073DD02046FFF797
:1014100095FF3FE06FF01000086108202077C86951
:1014200010F4407F3AD02046FFF788FF3CE000BF31
:101430006FF001000861204600F04EFA2168A5E730
:101440006FF0800008612046FFF7AEFC2168A4E73A
:101450006FF040000861204600F0CAFA2168A3E757
:10146000204600F04FF8204600F0AAF9216800203D
:1014700020776FE7204600F045F8204600F0A0F9FD
:101480002168002020776CE7204600F03BF82046DA
:1014900000F096F921680020207769E7204600F0E7
:1014A00031F8204600F08CF921680020207766E7AB
:1014B00080B586B0016840F20040C4F2000081426D
:1014C00002D006B080BD00BF002143F6300201917A
:1014D000C4F20202136800F5013043F00403136004
:1014E000126802F004020192019A4FF48072019294
:1014F0000222CDE90221CDE9041201A9FEF7DCFFA9
:1015000006B080BD704700002DE9F04390F83C30F4
:10151000012B04BF0220BDE8F0834FEAB202032A88
:1015200000F2FC80DFE802F0023E7EBE036840F27B
:1015300000471A6A43F4806522F001021A621C6AAD
:101540001A46D3F804E052F818CF8E6824F002044B
:10155000C4F20107BD4244EA060405D1CE6824F076
:101560000C0426F0040634430E68BD4207D1D1E9CD
:1015700005572EF4407E45EA0E0545EA070E2CF08D
:1015800073073743C3F804E09F614F6809695F63DD
:101590001C629F6947F008079F619F6927F0040755
:1015A0009F61B1E0036840F200481A6A43F4806525
:1015B00022F010021A621C6A1A46D3F804C052F8CC
:1015C00018EF8F6824F02004C4F20108454544EA6E
:1015D000071407D1CF686FF0400624F0C00406EA74
:1015E00007163443D1F80090454506D1D1E9055698
:1015F0002CF440672E4347EA860C2EF4E64747EA70
:101600000927C3F804C09F614F6809699F631C6282
:101610009F6947F400679F619F6927F480679F6116
:1016200071E000BF036840F200481A6A43F4806525
:1016300022F480721A621C6A1A46D3F804C052F867
:101640001CEF8F6824F40074C4F20108454544EA95
:10165000072408D1CF6840F2FF463F0224F44064DB
:1016600027EA06063443D1F80090454506D1D1E972
:1016700005562CF440572E4347EA061C2EF07307FC
:1016800047EA0907C3F804C0DF614F680969DF63EF
:101690001C62DF6947F00807DF61DF6927F0040794
:1016A000DF6131E0036840F200451A6A43F4806765
:1016B00022F480521A621A46D3F820C05C6852F8AD
:1016C0001CEFD1F800808E68C4F20105AF4204D14E
:1016D0004D6924F4804444EA85142CF4005747EA09
:1016E00006372EF4E64646EA08265C60DE614E6860
:1016F00009691E641F62DF6947F40067DF61DF6903
:1017000027F48067DF610902136819431160002123
:10171000002280F83C200846BDE8F0830121002229
:1017200080F83C200846BDE8F0830000002804BF94
:101730000120704710B5044690F83D0028B90020FC
:1017400084F83C00204600F01FF8022084F83D0099
:101750002068211D00F0A2FE012084F8460084F8D4
:101760003E0084F83F0084F8400084F8410084F88B
:10177000420084F8430084F8440084F8450084F86B
:101780003D00002010BD000081B0006840F2004123
:10179000C4F20001884201D001B0704700200090DF
:1017A00043F64000C4F20200016841F0020101600A
:1017B000006800F002000090009801B0704700003F
:1017C0007047000041B1082910D0042914BF00F16E
:1017D000410200F13F020BE090F83E20012A1CBFBD
:1017E00001207047022280F83E2013E000F1400201
:1017F0001278012A1CBF012070470222082907D055
:10180000042914BF80F8412080F83F2002E000BF87
:1018100080F84020006801F01F010122036A02FAEB
:1018200001F123EA01020262026A114341F2FF72EE
:10183000C4F20002904201620CDC40F2FF71C4F27B
:101840000001884214DCB0F1804F37D040F20041F3
:1018500016E000BF40F2FF31C4F20101884215DCFE
:1018600041F60001C4F20001884227D0002115E0B2
:1018700040F60001C4F2000188421FD040F600414A
:10188000C4F20001884219D01FE000BF44F20001F9
:10189000C4F20101884211D040F20041C4F20101BA
:1018A000884212D1416C40F2004340F48062C4F29D
:1018B000010341F400419A42416406D1816801F07C
:1018C0000701062904BF00207047016841F00101AB
:1018D00001600020704700002DE9F047046840F2E5
:1018E0007010C2F200000068844263D040F2E00150
:1018F000C2F2000109688C4218BFBDE8F087016898
:1019000040F2780AC1F30011C2F2000A8AF82010EE
:10191000416ABAF91820C06A00FB0215DAF8100013
:10192000CAF81450281A00EE100AB8EEC00A10EED9
:10193000100A01F0D3FB9FED280B58EC109B4A4690
:10194000434601F02DF99FED260B53EC102B01F0CF
:10195000C7FA01F0F3F801F0C1FB9FED230B53EC44
:10196000102B01F0BDFA064640F20C00C2F2000056
:1019700000680F4601F0B2FB02460B46304639467E
:1019800001F0AEFA01F0DAF8CAF81C0005EB4500E8
:10199000400001F08EFA4A46434601F001F901F099
:1019A00059FAAAF822006FF00100CAF8105020611D
:1019B000BDE8F087616A40F27800C2F20000816001
:1019C0002268018BD2064CBF013901310183BDE889
:1019D000F08700BF00BF00BFCCCCCCCCCC0C8C407F
:1019E00000000000000049400000000000004E40E0
:1019F000704700007047000070470000B0B582B02B
:101A0000044600680168C368426901F02F05202D73
:101A100003F0200506D12DB1204602B0BDE8B0404C
:101A200000F0E0BD5FEA017C1EBF02F0010E03F48E
:101A3000907212EB0E0253D1226B012A05D111F0E4
:101A4000100218BF13F0100236D10A0622D513F087
:101A500080021FD094F83D1021293FD1A168B1F533
:101A6000805F03D12169002900F07282216A4A1C3B
:101A7000226209784160E18C01390A04E1842DD1A8
:101A8000C16821F08001C160C16841F04001C160BE
:101A900002B0B0BD490621D513F040011ED0C16887
:101AA00021F04001C1602021204684F83D1002B0A1
:101AB000BDE8B04000F076BC0021019101680191C1
:101AC0004168019101994069400613D4A08DE18DD0
:101AD000E28D002A18BF884240F0BE8102B0B0BD3E
:101AE000CA0718BF13F4807240F0BA804A0700F1A9
:101AF000BD80C2E0A16B0868426893B2002BEDD0B4
:101B0000A08D8342EAD2E285C969B1F5807F00F0F9
:101B10009D80206850E8030F216820F4807041E820
:101B20000302DAB1206850E8030F216820F48070C6
:101B300041E8030292B1206850E8030F216820F4C5
:101B4000807041E803024AB1206850E8030F216821
:101B500020F4807041E80302002ADAD1206850E8BE
:101B6000050F216820F0010041E80502DAB1206884
:101B700050E8050F216820F0010041E8050292B10C
:101B8000206850E8050F216820F0010041E80502B7
:101B90004AB1206850E8050F216820F0010041E8B3
:101BA0000502002ADAD1206850E8050F216820F0EC
:101BB000400041E80502DAB1206850E8050F2168CD
:101BC00020F0400041E8050292B1206850E8050F7E
:101BD000216820F0400041E805024AB1206850E841
:101BE000050F216820F0400041E80502002ADAD103
:101BF000202084F83E0000202063206850E8030F76
:101C0000216820F0100041E80302DAB1206850E8B2
:101C1000030F216820F0100041E8030292B1206810
:101C200050E8030F216820F0100041E803024AB198
:101C3000206850E8030F216820F0100041E80302FB
:101C4000002ADAD1A06BFEF7C9FBA08DE18D401A06
:101C500081B2204602B0BDE8B040FFF7CBBE00BF66
:101C6000226C42F0010222644A0706D5BEF1000F41
:101C700003D0226C42F0020222648A0706D5BEF12C
:101C8000000F03D0226C42F004022264BCF1000F6A
:101C900009D545EA0E02B2FA82F2520903D1226C4A
:101CA00042F008022264226C002A3FF417AF11F0C0
:101CB000200118BF002D03D0204600F093FC2068BF
:101CC0004069216C00F0400001F00801401800F06C
:101CD000B58000BF206850E8030F216820F49070A1
:101CE00041E80302BAB3206850E8030F216820F4EA
:101CF000907041E8030272B3206850E8030F216836
:101D000020F4907041E803022AB3206850E8030FE2
:101D1000216820F4907041E80302002ADAD11AE029
:101D2000206850E8050F216820F0010041E8050215
:101D3000DAB1206850E8050F216820F0010041E881
:101D4000050292B1206850E8050F216820F00100DB
:101D500041E805024AB1206850E8050F216820F0EB
:101D6000010041E80502002ADAD1206B012824D1C4
:101D7000206850E8030F216820F0100041E80302BA
:101D8000DAB1206850E8030F216820F0100041E824
:101D9000030292B1206850E8030F216820F0100080
:101DA00041E803024AB1206850E8030F216820F09F
:101DB000100041E80302002ADAD1202084F83E0016
:101DC000002020632068406940063FD5206850E825
:101DD000050F216820F0400041E80502DAB12068D3
:101DE00050E8050F216820F0400041E8050292B15B
:101DF000206850E8050F216820F0400041E8050206
:101E00004AB1206850E8050F216820F0400041E801
:101E10000502002ADAD1A06BC0B142F2D951C0F656
:101E200000010165FEF722FB00283FF457AEA06BCE
:101E3000016D02B0BDE8B040084700BF2046FFF783
:101E4000DBFD0020206402B0B0BD00BF204602B020
:101E5000BDE8B040FFF7D0BD401A216851E8031F2C
:101E6000226821F4907142E80313DBB1216851E844
:101E7000031F226821F4907142E8031393B1216893
:101E800051E8031F226821F4907142E803134BB11B
:101E9000216851E8031F226821F4907142E803137E
:101EA000002BDAD1216851E8051F226821F00101D9
:101EB00042E80513DBB1216851E8051F226821F0D3
:101EC000010142E8051393B1216851E8051F22681A
:101ED00021F0010142E805134BB1216851E8051FCB
:101EE000226821F0010142E80513002BDAD12021FC
:101EF00084F83E1000212163216851E8031F226805
:101F000021F0100142E80313002B3FF4A1AE216839
:101F100051E8031F226821F0100142E80313002B4F
:101F20003FF496AE216851E8031F226821F01001AA
:101F300042E80313002B3FF48BAE216851E8031FE6
:101F4000226821F0100142E80313002BD4D17FE670
:101F5000216A31F8022B6FF35F22426021628AE529
:101F6000002804BF0120704710B5044690F83D00DA
:101F700028B9002084F83C00204600F021F82420F5
:101F800084F83D002068C16821F40051C1602046FA
:101F900000F0A8FB2068016921F4904101614169CA
:101FA00021F02A014161C16841F40051C160002063
:101FB0002021206484F83D1084F83E1010BD0000FC
:101FC00080B586B0016841F20000C4F20100814290
:101FD00002D006B080BD00BF002143F6300201915F
:101FE000C4F20202536900F5704043F010035361DC
:101FF000536903F010030193019B0191136843F0AF
:1020000001031360126802F001020192019A4FF479
:10201000C06201920222CDE902210321049107212D
:10202000059101A9FEF748FA252000210022FEF7BC
:10203000A1FB2520FEF78AFB06B080BD90F83E305C
:10204000202B0BD100294FF0010318BF002A01D12A
:102050001846704790F83C30012B01D102207047A0
:1020600000230363816222218285C285036480F894
:102070003E100269016880F83C301AB1C86840F42B
:102080008070C8604869002340F001004861C8685A
:1020900040F02000C860184670470000B0B50068E6
:1020A00041F20001C4F20101884218BFB0BD40F204
:1020B0007804C2F20004012004F12405606028467F
:1020C00021460222FFF7BAFF284621460222BDE838
:1020D000B04000F045B900002DE9F04381B004465E
:1020E00090F83D0020280DD10F4600294FF0010047
:1020F00000F0DD801646002A00F0D98094F83C00FC
:10210000012803D1022001B0BDE8F083012084F84A
:102110003C000020206421201D4684F83D00FEF78D
:10212000A5FAA684E684A1680646B1F5805F03D1CE
:102130002069002800F01081B8460027002084F8AC
:102140003C00E18C2068002900F0908005F1010935
:102150000DE000BFB8F1000F28D018F8011B416056
:10216000E18C0139E184E18C002900F07F80016875
:102170000906EFD4B9F1000F0AD0FDB1FEF776FAE7
:10218000801BA8421AD8206801680906F6D5E1E745
:1021900001680906DED4016809065CBF01685FEAD0
:1021A0000161D7D401680906F2D5D3E737F8021BDD
:1021B0004FF000086FF35F21D1E700BF206850E8BF
:1021C000030F216820F4D07041E80302BAB32068FD
:1021D00050E8030F216820F4D07041E8030272B385
:1021E000206850E8030F216820F4D07041E8030212
:1021F0002AB3206850E8030F216820F4D07041E82A
:102200000302002ADAD11AE0206850E8050F21689D
:1022100020F0010041E80502DAB1206850E8050F1E
:10222000216820F0010041E8050292B1206850E8E1
:10223000050F216820F0010041E805024AB120683D
:1022400050E8050F216820F0010041E80502002A4E
:10225000DAD1202084F83D0084F83E00002084F884
:102260003C00032001B0BDE8F08300BF01684906CF
:1022700019D4FDB1691C0DD10168490613D4016858
:1022800049065CBF01685FEA41610CD401684906F8
:10229000F2D508E0FEF7EAF9801BA8420AD82068C8
:1022A00000684006F6D5202084F83D00002001B0EB
:1022B000BDE8F083206850E8030F216820F4D07057
:1022C00041E80302E2B3206850E8030F216820F4DC
:1022D000D07041E803029AB3206850E8030F2168E8
:1022E00020F4D07041E8030252B3206850E8030F95
:1022F000216820F4D07041E80302002ADAD11FE0FF
:10230000206850E8050F216820F0010041E805022F
:10231000002A9ED0206850E8050F216820F00100B7
:1023200041E80502002A3FF494AF206850E8050F09
:10233000216820F0010041E80502002A3FF489AF3E
:10234000206850E8050F216820F0010041E80502EF
:10235000002AD5D17DE700BF4FF00008EEE600006F
:10236000034690F83D0020280AD100294FF00100D3
:1023700018BF002A00D1704793F83C00012801D112
:10238000022070471962002021219A84DA8418649F
:1023900083F83D10196883F83C00CA6842F0800257
:1023A000CA60704770470000FEE70000FEE70000CB
:1023B000FEE700007047000070470000FEF75CB9C0
:1023C000B0B592B0002443F640000B94CDE9094427
:1023D000CDE907440594CDE90344CDE901440094D7
:1023E000C4F202000168022541F0805101600068DA
:1023F00000F080500090009847F200000094C4F272
:102400000000016841F480410160006800F48040F0
:10241000009000980120099010200A9008200E904A
:10242000A820CDE90F050420119006A80695CDE956
:102430000C54FEF7E9FA28B1EFF3108072B600BF32
:10244000FEE700BF0F20CDE901054FF4A050049036
:102450004FF48050059001A805210394FEF7C6F9BA
:1024600020B1EFF3108072B6FEE700BF12B0B0BD2E
:102470004EF68850CEF20000016841F47001016010
:102480007047000040F2E000C2F20000FEF758BFC3
:1024900040F27010C2F20000FEF752BF10B540F6D5
:1024A000FF3E0368C4F2000E40F2004C7045C4F2D7
:1024B000010C27DCB0F1804F31D040F20042C4F271
:1024C000000290422BD040F60002C4F2000290427B
:1024D00025D041F6FF72C4F20002904229DC70451B
:1024E0003CDCB0F1804F5FD040F20042C4F2000209
:1024F000904259D040F60002C4F20002904253D0FC
:1025000056E000BF40F60042C4F20002904206D0FE
:10251000604504D00022C4F201029042D9D14A6839
:1025200023F07003134341F6FF72C4F2000290429D
:10253000D5DD43F6FF72C4F20102904222DC42F282
:102540000002C4F2000290422ED00022C4F2010226
:10255000904229D0604527D02AE000BF40F60042D3
:10256000C4F2000290421FD041F60002C4F2000201
:10257000904219D041F60042C4F20002904213D0BA
:1025800016E000BF44F20002C4F2010290420BD0F8
:1025900044F60002C4F20102904205D044F2004227
:1025A000C4F20102904203D1CA6823F4407313437A
:1025B00023F080024B69D1F800E08C681A43026076
:1025C000C46240F48062C0F828E0624504BF096933
:1025D00001630121416110BD806B0021C185C1846F
:1025E000FFF70ABA81B090F83E10222921D1836802
:1025F0000246B3F5805F09D152F8281F52F8183C03
:10260000002B63D003685B680AE000BF52F8281F04
:1026100013B90369002BF5D003685B6803F07F03EF
:102620000B70116801311160C18D01390A04C18537
:1026300002D001B0704700BF0168CA6822F02002D2
:10264000CA60CA6822F48072CA604A6922F0010234
:102650004A61202180F83E10016B01293ED1002102
:10266000016300BF016851E8031F026821F01001F7
:1026700042E80313DBB1016851E8031F026821F04F
:10268000100142E8031393B1016851E8031F026887
:1026900021F0100142E803134BB1016851E8031F18
:1026A000026821F0100142E80313002BDAD101681F
:1026B0000A68D20606D5002200920A68009249688C
:1026C00000910099818D01B0FFF794B902685268BA
:1026D0006FF35F2221F8022B8162A5E701B0FFF7BB
:1026E000DDBC000010B504460068D4E902C22369CD
:1026F000016921F4405111430161626943EA0C010F
:10270000E3691143C268194349F20C639A431143C8
:10271000C1604169A26921F4407141F20043114353
:1027200040F48062C4F201039A42416102D1FEF793
:1027300021F901E0FEF70AF9E16963681922B1F5B0
:10274000004FA0FB020123D15A00DB0FFDF78CFDE7
:1027500048F21F51C5F2EB11A0FB01235A094FF6B5
:102760009C73C0F6FF7303F1805302FB0300322316
:1027700003EBC000A0FB01014FF4F87000EA111058
:1027800000EB0210C1F3421108442168886010BDBB
:102790009A009B0FFDF768FD48F21F51C5F2EB113F
:1027A000A0FB01235A094FF69C73C0F6FF7302FB8E
:1027B0000300322303EB0010A0FB0101F02000EA2C
:1027C000511000EB0210C1F34311084421688860E6
:1027D00010BD000040F29C00C2F20000FFF70EB9ED
:1027E000FEE700008CB040F6004BC4F2020BFDF790
:1027F00051FFFFF7E5FD002643F6300007960096EF
:10280000C4F2020001680BF5006841F0200101608C
:102810000168002201F020010091009900960168F2
:102820004FF4007441F080010160016801F0800103
:10283000009100990096016841F00801016001686B
:1028400001F00801009100990096016841F004012F
:102850000160016801F0040100910099009601688F
:1028600041F001010160016801F00101009100994E
:102870000096016841F04001016000684FF400716A
:1028800000F04000009000984046FDF7E9FE5846F1
:10289000402100224FF0400AFDF7E2FE0BF54069AF
:1028A00048464FF400710022FDF7DAFE03AF012520
:1028B000404639460394CDE904560696FDF7FCFDE3
:1028C00058463946CDE903A5CDE90566FDF7F4FD87
:1028D00003A870C0484639460696FDF7EDFD40F264
:1028E0002810ABF50231C2F2000040F2E733CDE927
:1028F0000066CDE90866CDE90666A72280E84600B5
:10290000C0E903368661FEF711FF28B1EFF31080AE
:1029100072B600BFFEE700BF40F22810C2F200000E
:102920006946FEF745FA28B1EFF3108072B600BF92
:10293000FEE700BF6020039040F228100026C2F29C
:10294000000003A90822CDE904660796FEF7DCFD26
:1029500020B1EFF3108072B6FEE700BF40F22810FE
:10296000C2F20000FEF7A4FD40F2780AC2F2000AAB
:10297000ABF57C41504640F8241F4FF4E1310C2266
:10298000C0E90116C0E90366C0E90526C661FFF784
:10299000E7FA28B1EFF3108072B600BFFEE700BF80
:1029A00040F2E0000021C2F200004FF080425323C9
:1029B00044F61F670691CDE90411CDE90011C0E985
:1029C0000023C0E9021701618161FEF74DFA28B1C9
:1029D000EFF3108072B600BFFEE700BF4FF48050E7
:1029E000039040F2E000C2F2000003A9FEF7E2FA11
:1029F00020B1EFF3108072B6FEE700BF40F2E005B1
:102A0000C2F2000569462846FEF7D2F920B1EFF37D
:102A1000108072B6FEE700BF40F270100021ABF5E7
:102A20000132C2F200004FF6FF73C0E90021032219
:102A3000C0E90213CDE9032101220A23CDE90011E7
:102A400001618161CDE90521CDE90731CDE9092198
:102A50000B9103A9FEF77CFB20B1EFF3108072B657
:102A6000FEE700BF40F27010C2F200006946FEF7B8
:102A70009FF928B1EFF3108072B600BFFEE700BFE8
:102A800040F22810C2F200000821FEF79BFE5846D3
:102A900040210122FDF7E4FD0AF1240630465146AB
:102AA0000222FFF7CBFA28686FF001010161284686
:102AB000FEF72AFA40F27017C2F200073846FEF716
:102AC00023FA38463C21FEF7DBFB40F21005C2F248
:102AD00000050DF10C0B29E001279AF801004FF4D5
:102AE000007100EB800000F128044046FDF7B8FDBE
:102AF00048464FF400713A46FDF7B2FD40F2281007
:102B0000C2F200000068C463DAF81C002946039092
:102B1000304601223223FFF7DFFA304659460422BD
:102B20003223FFF7D9FA2120FDF7B2FC9AF80020F2
:102B3000002AD1D0012AE7D10027CEE721F00042B8
:102B400001F00043A2F16052B2F5801F28BFD2F11C
:102B50007F6C0BD95FEA001C43EAC20242EB507063
:102B600018BF704728BF20F001007047B2F5801FE2
:102B7000BCBF184670474FEA410C1CF5001F02D23B
:102B8000084600F029BB70B500F054FA0000008937
:102B9000FFF7F6BF4FF00040A0F58000704700003F
:102BA0002DE9C04130B4DFF8A4C23CEA111418BFCB
:102BB0003CEA131400F0ED801CEA111481EA0305CD
:102BC00044EAD57418BF1CEA131500F0C880A4EBC2
:102BD000050404F17F7404F500344FF0004545EA24
:102BE000C12145EAC32341EA505143EA52534FEA17
:102BF000C0204FEAC222994208BF904200F09D8057
:102C00004FEA13650FF24416765D4FEA134506FB53
:102C100005F7C7F1807706FB07F74FEAD737A7FB21
:102C200003687642A7FB06CEC8F5803838BFA8F106
:102C3000010807FB08E6A6FB028C4FF0000EE6FB3E
:102C400003CEDCF1000CCEF1004E38BFAEF1010E28
:102C5000A6FB0C584FF00007E6FB0E87A1FB08C649
:102C6000A0FB07CE16EB0E064FF0000545F1000560
:102C7000E1FB076515F1E04E7EBFA4F580345FEA05
:102C800046066D4116F1800745F100054FEA17270A
:102C900047EA05674FEA15254FEA0666A6F1DE46C4
:102CA000B6F1805F20D9384605EBC47124F0010CE1
:102CB00001EB0C11BCF1FE6F02D8F0BCBDE8008145
:102CC00024425CBF01F5801E9EEAC47F02D4F0BCA2
:102CD000BDE80081244200F13980A1F1C041F0BC7F
:102CE000BDE8004100F0F4B94FEAD02040EA41507D
:102CF0004FEAD1214FEAD22242EA43524FEAD3238C
:102D0000A7FB028607FB036605FB02661EEA0E0FA1
:102D100058BFA6EB0056B6EB00564FEA520E4EEAED
:102D2000C37E18EB0E0E56EB530EBCD518EB020803
:102D30005E417F1C55F10005B5E74FF480154FF05B
:102D400000074FF000064FF00008ACE701F1C0416A
:102D500001F000414FF00000F0BCBDE800810CEA3A
:102D6000131511EA0C1F00D00CE013EA0C1F00F041
:102D700026804FF0000081EA030101F00041F0BC21
:102D8000BDE80081F0BCBDE8004181EA030100F02C
:102D90009FB9F0BCBDE8004170B500F04BF900BF31
:102DA000097EFC3E00F007B84FF0000081EA030105
:102DB00001F00041704781EA030100F089B9F0BCDD
:102DC000BDE8004122494FF000007047FFFDFBF9CC
:102DD000F7F5F4F2F0EEEDEBE9E8E6E4E3E1E0DE4E
:102DE000DDDBDAD8D7D5D4D3D1D0CFCDCCCBCAC8C0
:102DF000C7C6C5C4C2C1C0BFBEBDBCBBBAB9B8B7E7
:102E0000B6B5B4B3B2B1B0AFAEADACABAAA9A8A8D9
:102E1000A7A6A5A4A3A3A2A1A09F9F9E9D9C9C9BA7
:102E20009A99999897979695959493939291919052
:102E30008F8F8E8E8D8C8C8B8B8A898988888787E3
:102E40008685858484838382828181800000FF0758
:102E50000000F87F4FEA41034FEA5353A3F5806324
:102E6000D3F11E03C8BFD3F1210C0CDD4FF000429B
:102E700042EAC12242EA505232FA03FC8CEAE17C77
:102E8000ACEBE1707047102BC4BF0020704703F516
:102E9000787CBCF1FF3F04D06FF0004282EA210051
:102EA000704770B500F0C6F8499224800020704742
:102EB000F2E710F0004248BF4042B0FA80F310FA47
:102EC00003F10AD0C3F11D0303F5806302EB035243
:102ED0004FEA415002EBD12170474FF0000070479C
:102EE00070B5DFF848C11CEA111E1EBF1CEA13159D
:102EF0009EEA0C0F95EA0C0F00F06F8081EA030444
:102F00004EEAD47EAE4421EA4C1123EA4C1341F43C
:102F1000801143F48013AEF17F7EA1FB024CA0FB35
:102F20000365361955EB0C05A1FB034C4CF100036E
:102F3000A0FB021C16EB0C06654153F1000309428D
:102F400018BF46F0010613F4007F0BD14FEA03319E
:102F50004FEA053041EA155140EA165034036FF04C
:102F600003020AE04FEAC3214FEAC52041EA555166
:102F700040EA5650F4026FF0020202EB2E4201EBDF
:102F8000025585EACE710AD05FEA440C18BF24F0DE
:102F9000004450F1000041F1000120EAD47040F2F9
:102FA000FE7C624500D270BDA84214BF4FF0804441
:102FB0004FF04044002E08BF0024BEF1806FA8BF30
:102FC000A1F1C041BDE8704080F2828001F1C041B2
:102FD00001F000414FF0000070470CEA13159EEA23
:102FE0000C0F18BF95EA0C0F06D081EA030E4FF0C4
:102FF00000000EF0004170BD00F01CF88900013E99
:1030000000F007B800F009B84FEA430C5FEA5C5CD7
:1030100008D081EA030100F05BB84FEA410C5FEA97
:103020005C5CF6D102494FF0000070470000FF07DA
:103030000000F87F0EF1020E2EF0030E5EF8046B16
:10304000364205D4012A43EB030515F5001F12D8BB
:10305000012841EB010C1CF5001F0CD80ED14FEAE2
:10306000D17C0CEB4C0C0CF1020C15F5001F08BFC9
:103070004CEBD37C04E04FF0080C01E04FEAD37C2A
:103080000CEB4C0526FA05F606F00706B6F1040C23
:1030900006D20EEB860CBDE870404CF0010C604788
:1030A000DFE80CF0090B02024FF00041A1F500210E
:1030B0004FF0000070BD19461046012851EB010485
:1030C00018BFD4F5001484BF002001F0004170BD8A
:1030D0000808A0F500114FEA3101704743004FEA9C
:1030E000D30C4FEA3C0C43401FBF40070CF160512A
:1030F00013F0FE4F70471CF0006F03D10CF000413D
:10310000002070470CF0004343EA507040EACC00C6
:1031100010B500F00EF800BF000000924FEA000169
:10312000FFF7D6BF4FF00041A1F500214FF000009E
:1031300070470EF1020E2EF0030E5EF8044B24428F
:1031400004D44FEA4102B2F17F4F11D84FEA400355
:10315000B3F17F4F0CD80ED14FEAD07C0CEB4C0C66
:103160000CF1020CB2F17F4F08BF4CEBD17C04E0B4
:103170004FF0080C01E04FEAD17C0CEB4C0324FA31
:1031800003F404F00704B4F1040C06D20EEB840C33
:10319000BDE810404CF0010C6047DFE80CF0070878
:1031A00002024FF00040A0F5800010BD084642002A
:1031B00018BFD2F1807288BF00F0004010BDF1EE60
:1031C000100A4FF6FF71C0F2C03120EA010040F052
:1031D0004070E1EE100A7047FF2141EAD050C0056F
:1031E0007047000000000000000001020304060711
:1031F000080900000000010203040000203200085A
:103200000000002018000000C40100083832000847
:1032100018000020A8070000E001000800000000DE
:1032200001000000100000000024F400E17A543F87
:08323000AA00000000000000EC
:040000050800018965
:00000001FF
